{
    "_format": "hh-sol-artifact-1",
    "contractName": "Payment",
    "sourceName": "contracts/Payment.sol",
    "abi": [
        {
            "inputs": [],
            "stateMutability": "nonpayable",
            "type": "constructor"
        },
        {
            "anonymous": false,
            "inputs": [
                {
                    "indexed": false,
                    "internalType": "address",
                    "name": "owner",
                    "type": "address"
                },
                {
                    "indexed": false,
                    "internalType": "uint256",
                    "name": "amount",
                    "type": "uint256"
                }
            ],
            "name": "Claim",
            "type": "event"
        },
        {
            "anonymous": false,
            "inputs": [
                {
                    "indexed": false,
                    "internalType": "address",
                    "name": "from",
                    "type": "address"
                },
                {
                    "indexed": false,
                    "internalType": "address",
                    "name": "to",
                    "type": "address"
                },
                {
                    "indexed": false,
                    "internalType": "uint256",
                    "name": "amount",
                    "type": "uint256"
                },
                {
                    "indexed": false,
                    "internalType": "uint256",
                    "name": "planId",
                    "type": "uint256"
                },
                {
                    "indexed": false,
                    "internalType": "uint256",
                    "name": "date",
                    "type": "uint256"
                }
            ],
            "name": "PaymentSent",
            "type": "event"
        },
        {
            "anonymous": false,
            "inputs": [
                {
                    "indexed": false,
                    "internalType": "address",
                    "name": "merchant",
                    "type": "address"
                },
                {
                    "indexed": false,
                    "internalType": "uint256",
                    "name": "planId",
                    "type": "uint256"
                },
                {
                    "indexed": false,
                    "internalType": "uint256",
                    "name": "date",
                    "type": "uint256"
                }
            ],
            "name": "PlanCreated",
            "type": "event"
        },
        {
            "anonymous": false,
            "inputs": [
                {
                    "indexed": false,
                    "internalType": "address",
                    "name": "subscriber",
                    "type": "address"
                },
                {
                    "indexed": false,
                    "internalType": "uint256",
                    "name": "planId",
                    "type": "uint256"
                },
                {
                    "indexed": false,
                    "internalType": "uint256",
                    "name": "date",
                    "type": "uint256"
                }
            ],
            "name": "SubscriptionCancelled",
            "type": "event"
        },
        {
            "anonymous": false,
            "inputs": [
                {
                    "indexed": false,
                    "internalType": "address",
                    "name": "subscriber",
                    "type": "address"
                },
                {
                    "indexed": false,
                    "internalType": "uint256",
                    "name": "planId",
                    "type": "uint256"
                },
                {
                    "indexed": false,
                    "internalType": "uint256",
                    "name": "date",
                    "type": "uint256"
                }
            ],
            "name": "SubscriptionCreated",
            "type": "event"
        },
        {
            "inputs": [
                {
                    "internalType": "uint256",
                    "name": "planId",
                    "type": "uint256"
                }
            ],
            "name": "cancel",
            "outputs": [],
            "stateMutability": "nonpayable",
            "type": "function"
        },
        {
            "inputs": [],
            "name": "claim",
            "outputs": [],
            "stateMutability": "nonpayable",
            "type": "function"
        },
        {
            "inputs": [
                {
                    "internalType": "uint256",
                    "name": "amount",
                    "type": "uint256"
                },
                {
                    "internalType": "uint256",
                    "name": "frequency",
                    "type": "uint256"
                }
            ],
            "name": "createPlan",
            "outputs": [
                {
                    "internalType": "bool",
                    "name": "",
                    "type": "bool"
                }
            ],
            "stateMutability": "nonpayable",
            "type": "function"
        },
        {
            "inputs": [],
            "name": "getContractBalance",
            "outputs": [
                {
                    "internalType": "uint256",
                    "name": "",
                    "type": "uint256"
                }
            ],
            "stateMutability": "view",
            "type": "function"
        },
        {
            "inputs": [
                {
                    "internalType": "address",
                    "name": "_subscriber",
                    "type": "address"
                },
                {
                    "internalType": "uint256",
                    "name": "planId",
                    "type": "uint256"
                }
            ],
            "name": "getSubscriptions",
            "outputs": [
                {
                    "components": [
                        {
                            "internalType": "address",
                            "name": "subscriber",
                            "type": "address"
                        },
                        {
                            "internalType": "uint256",
                            "name": "start",
                            "type": "uint256"
                        },
                        {
                            "internalType": "uint256",
                            "name": "nextPayment",
                            "type": "uint256"
                        }
                    ],
                    "internalType": "struct Payment.Subscription",
                    "name": "",
                    "type": "tuple"
                }
            ],
            "stateMutability": "view",
            "type": "function"
        },
        {
            "inputs": [],
            "name": "nextPlanId",
            "outputs": [
                {
                    "internalType": "uint256",
                    "name": "",
                    "type": "uint256"
                }
            ],
            "stateMutability": "view",
            "type": "function"
        },
        {
            "inputs": [],
            "name": "owner",
            "outputs": [
                {
                    "internalType": "address",
                    "name": "",
                    "type": "address"
                }
            ],
            "stateMutability": "view",
            "type": "function"
        },
        {
            "inputs": [
                {
                    "internalType": "address",
                    "name": "subscriber",
                    "type": "address"
                },
                {
                    "internalType": "uint256",
                    "name": "planId",
                    "type": "uint256"
                }
            ],
            "name": "pay",
            "outputs": [],
            "stateMutability": "payable",
            "type": "function"
        },
        {
            "inputs": [
                {
                    "internalType": "uint256",
                    "name": "",
                    "type": "uint256"
                }
            ],
            "name": "plans",
            "outputs": [
                {
                    "internalType": "address",
                    "name": "merchant",
                    "type": "address"
                },
                {
                    "internalType": "uint256",
                    "name": "amount",
                    "type": "uint256"
                },
                {
                    "internalType": "uint256",
                    "name": "frequency",
                    "type": "uint256"
                }
            ],
            "stateMutability": "view",
            "type": "function"
        },
        {
            "inputs": [
                {
                    "internalType": "uint256",
                    "name": "planId",
                    "type": "uint256"
                }
            ],
            "name": "subscribe",
            "outputs": [],
            "stateMutability": "payable",
            "type": "function"
        },
        {
            "inputs": [
                {
                    "internalType": "address",
                    "name": "",
                    "type": "address"
                },
                {
                    "internalType": "uint256",
                    "name": "",
                    "type": "uint256"
                }
            ],
            "name": "subscriptions",
            "outputs": [
                {
                    "internalType": "address",
                    "name": "subscriber",
                    "type": "address"
                },
                {
                    "internalType": "uint256",
                    "name": "start",
                    "type": "uint256"
                },
                {
                    "internalType": "uint256",
                    "name": "nextPayment",
                    "type": "uint256"
                }
            ],
            "stateMutability": "view",
            "type": "function"
        }
    ],
    "bytecode": "0x608060405234801561001057600080fd5b5033600160006101000a81548173ffffffffffffffffffffffffffffffffffffffff021916908373ffffffffffffffffffffffffffffffffffffffff160217905550611581806100616000396000f3fe60806040526004361061009c5760003560e01c80636f9fb98a116100645780636f9fb98a146101675780638da5cb5b14610192578063b1620616146101bd578063b197df54146101fc578063b508ddeb14610239578063c4076876146102765761009c565b80630f574ba7146100a157806340e58ee5146100bd5780634e71d92d146100e65780635f8d26b2146100fd578063623da3d114610128575b600080fd5b6100bb60048036038101906100b69190610eb1565b610292565b005b3480156100c957600080fd5b506100e460048036038101906100df9190610eb1565b610517565b005b3480156100f257600080fd5b506100fb6106c8565b005b34801561010957600080fd5b50610112610874565b60405161011f91906113a7565b60405180910390f35b34801561013457600080fd5b5061014f600480360381019061014a9190610e75565b61087a565b60405161015e9392919061123a565b60405180910390f35b34801561017357600080fd5b5061017c6108d1565b60405161018991906113a7565b60405180910390f35b34801561019e57600080fd5b506101a76108d9565b6040516101b491906111a3565b60405180910390f35b3480156101c957600080fd5b506101e460048036038101906101df9190610eb1565b6108ff565b6040516101f39392919061123a565b60405180910390f35b34801561020857600080fd5b50610223600480360381019061021e9190610eda565b610949565b6040516102309190611271565b60405180910390f35b34801561024557600080fd5b50610260600480360381019061025b9190610e75565b610b25565b60405161026d919061138c565b60405180910390f35b610290600480360381019061028b9190610e75565b610c00565b005b6000600260008381526020019081526020016000209050600073ffffffffffffffffffffffffffffffffffffffff168160000160009054906101000a900473ffffffffffffffffffffffffffffffffffffffff1673ffffffffffffffffffffffffffffffffffffffff16141561033d576040517f08c379a0000000000000000000000000000000000000000000000000000000008152600401610334906112ec565b60405180910390fd5b34816001015414610383576040517f08c379a000000000000000000000000000000000000000000000000000000000815260040161037a9061130c565b60405180910390fd5b7f577462848cc2ec95e5ef95bf0b154b97340221cd1002ea0511a3877a7f20fb8c338260000160009054906101000a900473ffffffffffffffffffffffffffffffffffffffff16836001015485426040516103e29594939291906111be565b60405180910390a160405180606001604052803373ffffffffffffffffffffffffffffffffffffffff16815260200142815260200182600201544261042791906113d3565b815250600360003373ffffffffffffffffffffffffffffffffffffffff1673ffffffffffffffffffffffffffffffffffffffff168152602001908152602001600020600084815260200190815260200160002060008201518160000160006101000a81548173ffffffffffffffffffffffffffffffffffffffff021916908373ffffffffffffffffffffffffffffffffffffffff16021790555060208201518160010155604082015181600201559050507feec977e786e7248a658b0474ccf8f57f37ead019014ec4d5ba1542ddabeff1b433834260405161050b9392919061123a565b60405180910390a15050565b6000600360003373ffffffffffffffffffffffffffffffffffffffff1673ffffffffffffffffffffffffffffffffffffffff16815260200190815260200160002060008381526020019081526020016000209050600073ffffffffffffffffffffffffffffffffffffffff168160000160009054906101000a900473ffffffffffffffffffffffffffffffffffffffff1673ffffffffffffffffffffffffffffffffffffffff1614156105ff576040517f08c379a00000000000000000000000000000000000000000000000000000000081526004016105f6906112cc565b60405180910390fd5b600360003373ffffffffffffffffffffffffffffffffffffffff1673ffffffffffffffffffffffffffffffffffffffff1681526020019081526020016000206000838152602001908152602001600020600080820160006101000a81549073ffffffffffffffffffffffffffffffffffffffff02191690556001820160009055600282016000905550507fde4047f3bd050ef9b8743c61b37fd72275056d1ccb33d1eb3f22c80cb14df2893383426040516106bc9392919061123a565b60405180910390a15050565b600160009054906101000a900473ffffffffffffffffffffffffffffffffffffffff1673ffffffffffffffffffffffffffffffffffffffff163373ffffffffffffffffffffffffffffffffffffffff1614610758576040517f08c379a000000000000000000000000000000000000000000000000000000000815260040161074f9061132c565b60405180910390fd5b6000471161079b576040517f08c379a00000000000000000000000000000000000000000000000000000000081526004016107929061128c565b60405180910390fd5b60006103e8476107ab9190611429565b9050600160009054906101000a900473ffffffffffffffffffffffffffffffffffffffff1673ffffffffffffffffffffffffffffffffffffffff166108fc829081150290604051600060405180830381858888f19350505050158015610815573d6000803e3d6000fd5b507f47cee97cb7acd717b3c0aa1435d004cd5b3c8c57d70dbceb4e4458bbd60e39d4600160009054906101000a900473ffffffffffffffffffffffffffffffffffffffff1682604051610869929190611211565b60405180910390a150565b60005481565b6003602052816000526040600020602052806000526040600020600091509150508060000160009054906101000a900473ffffffffffffffffffffffffffffffffffffffff16908060010154908060020154905083565b600047905090565b600160009054906101000a900473ffffffffffffffffffffffffffffffffffffffff1681565b60026020528060005260406000206000915090508060000160009054906101000a900473ffffffffffffffffffffffffffffffffffffffff16908060010154908060020154905083565b6000600160009054906101000a900473ffffffffffffffffffffffffffffffffffffffff1673ffffffffffffffffffffffffffffffffffffffff163373ffffffffffffffffffffffffffffffffffffffff16146109db576040517f08c379a00000000000000000000000000000000000000000000000000000000081526004016109d29061132c565b60405180910390fd5b60008311610a1e576040517f08c379a0000000000000000000000000000000000000000000000000000000008152600401610a15906112ac565b60405180910390fd5b60008211610a61576040517f08c379a0000000000000000000000000000000000000000000000000000000008152600401610a589061136c565b60405180910390fd5b60405180606001604052803373ffffffffffffffffffffffffffffffffffffffff16815260200184815260200183815250600260008054815260200190815260200160002060008201518160000160006101000a81548173ffffffffffffffffffffffffffffffffffffffff021916908373ffffffffffffffffffffffffffffffffffffffff1602179055506020820151816001015560408201518160020155905050600080815480929190610b16906114a5565b91905055506001905092915050565b610b2d610e14565b6000600360008573ffffffffffffffffffffffffffffffffffffffff1673ffffffffffffffffffffffffffffffffffffffff16815260200190815260200160002060008481526020019081526020016000206040518060600160405290816000820160009054906101000a900473ffffffffffffffffffffffffffffffffffffffff1673ffffffffffffffffffffffffffffffffffffffff1673ffffffffffffffffffffffffffffffffffffffff1681526020016001820154815260200160028201548152505090508091505092915050565b6000600360008473ffffffffffffffffffffffffffffffffffffffff1673ffffffffffffffffffffffffffffffffffffffff168152602001908152602001600020600083815260200190815260200160002090506000600260008481526020019081526020016000209050600073ffffffffffffffffffffffffffffffffffffffff168260000160009054906101000a900473ffffffffffffffffffffffffffffffffffffffff1673ffffffffffffffffffffffffffffffffffffffff161415610cff576040517f08c379a0000000000000000000000000000000000000000000000000000000008152600401610cf6906112cc565b60405180910390fd5b81600201544211610d45576040517f08c379a0000000000000000000000000000000000000000000000000000000008152600401610d3c9061134c565b60405180910390fd5b34816001015414610d8b576040517f08c379a0000000000000000000000000000000000000000000000000000000008152600401610d829061130c565b60405180910390fd5b7f577462848cc2ec95e5ef95bf0b154b97340221cd1002ea0511a3877a7f20fb8c848260000160009054906101000a900473ffffffffffffffffffffffffffffffffffffffff1683600101548642604051610dea9594939291906111be565b60405180910390a180600201548260020154610e0691906113d3565b826002018190555050505050565b6040518060600160405280600073ffffffffffffffffffffffffffffffffffffffff16815260200160008152602001600081525090565b600081359050610e5a8161151d565b92915050565b600081359050610e6f81611534565b92915050565b60008060408385031215610e8857600080fd5b6000610e9685828601610e4b565b9250506020610ea785828601610e60565b9150509250929050565b600060208284031215610ec357600080fd5b6000610ed184828501610e60565b91505092915050565b60008060408385031215610eed57600080fd5b6000610efb85828601610e60565b9250506020610f0c85828601610e60565b9150509250929050565b610f1f8161145d565b82525050565b610f2e8161145d565b82525050565b610f3d8161146f565b82525050565b6000610f506014836113c2565b91507f4e6f2062616c616e636520617661696c61626c650000000000000000000000006000830152602082019050919050565b6000610f906016836113c2565b91507f616d6f756e74206e6565647320746f206265203e2030000000000000000000006000830152602082019050919050565b6000610fd06020836113c2565b91507f7468697320737562736372697074696f6e20646f6573206e6f742065786973746000830152602082019050919050565b60006110106018836113c2565b91507f7468697320706c616e20646f6573206e6f7420657869737400000000000000006000830152602082019050919050565b60006110506015836113c2565b91507f416d6f756e74206973206e6f7420636f727265637400000000000000000000006000830152602082019050919050565b60006110906009836113c2565b91507f4e6f74206f776e657200000000000000000000000000000000000000000000006000830152602082019050919050565b60006110d0600b836113c2565b91507f6e6f7420647565207965740000000000000000000000000000000000000000006000830152602082019050919050565b60006111106019836113c2565b91507f6672657175656e6379206e6565647320746f206265203e2030000000000000006000830152602082019050919050565b6060820160008201516111596000850182610f16565b50602082015161116c6020850182611185565b50604082015161117f6040850182611185565b50505050565b61118e8161149b565b82525050565b61119d8161149b565b82525050565b60006020820190506111b86000830184610f25565b92915050565b600060a0820190506111d36000830188610f25565b6111e06020830187610f25565b6111ed6040830186611194565b6111fa6060830185611194565b6112076080830184611194565b9695505050505050565b60006040820190506112266000830185610f25565b6112336020830184611194565b9392505050565b600060608201905061124f6000830186610f25565b61125c6020830185611194565b6112696040830184611194565b949350505050565b60006020820190506112866000830184610f34565b92915050565b600060208201905081810360008301526112a581610f43565b9050919050565b600060208201905081810360008301526112c581610f83565b9050919050565b600060208201905081810360008301526112e581610fc3565b9050919050565b6000602082019050818103600083015261130581611003565b9050919050565b6000602082019050818103600083015261132581611043565b9050919050565b6000602082019050818103600083015261134581611083565b9050919050565b60006020820190508181036000830152611365816110c3565b9050919050565b6000602082019050818103600083015261138581611103565b9050919050565b60006060820190506113a16000830184611143565b92915050565b60006020820190506113bc6000830184611194565b92915050565b600082825260208201905092915050565b60006113de8261149b565b91506113e98361149b565b9250827fffffffffffffffffffffffffffffffffffffffffffffffffffffffffffffffff0382111561141e5761141d6114ee565b5b828201905092915050565b60006114348261149b565b915061143f8361149b565b925082821015611452576114516114ee565b5b828203905092915050565b60006114688261147b565b9050919050565b60008115159050919050565b600073ffffffffffffffffffffffffffffffffffffffff82169050919050565b6000819050919050565b60006114b08261149b565b91507fffffffffffffffffffffffffffffffffffffffffffffffffffffffffffffffff8214156114e3576114e26114ee565b5b600182019050919050565b7f4e487b7100000000000000000000000000000000000000000000000000000000600052601160045260246000fd5b6115268161145d565b811461153157600080fd5b50565b61153d8161149b565b811461154857600080fd5b5056fea2646970667358221220cf48894cd7ca654a317c4248d67927b9ae5911893dc2e2eedeac2b68e0091e6c64736f6c63430008000033",
    "linkReferences": {},
    "deployedLinkReferences": {}
}